{
  "_format": "hh-sol-artifact-1",
  "contractName": "Wallet",
  "sourceName": "contracts/Wallet.sol",
  "abi": [
    {
      "anonymous": false,
      "inputs": [
        {
          "indexed": true,
          "internalType": "address",
          "name": "previousOwner",
          "type": "address"
        },
        {
          "indexed": true,
          "internalType": "address",
          "name": "newOwner",
          "type": "address"
        }
      ],
      "name": "OwnershipTransferred",
      "type": "event"
    },
    {
      "inputs": [
        {
          "internalType": "address",
          "name": "",
          "type": "address"
        },
        {
          "internalType": "address",
          "name": "",
          "type": "address"
        }
      ],
      "name": "balances",
      "outputs": [
        {
          "internalType": "uint256",
          "name": "",
          "type": "uint256"
        }
      ],
      "stateMutability": "view",
      "type": "function"
    },
    {
      "inputs": [
        {
          "internalType": "address",
          "name": "token",
          "type": "address"
        },
        {
          "internalType": "uint256",
          "name": "amount",
          "type": "uint256"
        }
      ],
      "name": "deposit",
      "outputs": [],
      "stateMutability": "payable",
      "type": "function"
    },
    {
      "inputs": [
        {
          "internalType": "address",
          "name": "owner",
          "type": "address"
        }
      ],
      "name": "initialize",
      "outputs": [],
      "stateMutability": "nonpayable",
      "type": "function"
    },
    {
      "inputs": [],
      "name": "initialized",
      "outputs": [
        {
          "internalType": "bool",
          "name": "",
          "type": "bool"
        }
      ],
      "stateMutability": "view",
      "type": "function"
    },
    {
      "inputs": [],
      "name": "owner",
      "outputs": [
        {
          "internalType": "address",
          "name": "",
          "type": "address"
        }
      ],
      "stateMutability": "view",
      "type": "function"
    },
    {
      "inputs": [],
      "name": "renounceOwnership",
      "outputs": [],
      "stateMutability": "nonpayable",
      "type": "function"
    },
    {
      "inputs": [
        {
          "internalType": "address",
          "name": "newOwner",
          "type": "address"
        }
      ],
      "name": "transferOwnership",
      "outputs": [],
      "stateMutability": "nonpayable",
      "type": "function"
    },
    {
      "inputs": [
        {
          "internalType": "address",
          "name": "token",
          "type": "address"
        },
        {
          "internalType": "uint256",
          "name": "amount",
          "type": "uint256"
        }
      ],
      "name": "withdraw",
      "outputs": [],
      "stateMutability": "nonpayable",
      "type": "function"
    }
  ],
  "bytecode": "0x608060405234801561001057600080fd5b5061002d61002261003260201b60201c565b61003a60201b60201c565b6100fe565b600033905090565b60008060009054906101000a900473ffffffffffffffffffffffffffffffffffffffff169050816000806101000a81548173ffffffffffffffffffffffffffffffffffffffff021916908373ffffffffffffffffffffffffffffffffffffffff1602179055508173ffffffffffffffffffffffffffffffffffffffff168173ffffffffffffffffffffffffffffffffffffffff167f8be0079c531659141344cd1fd0a4f28419497f9722a3daafe3b4186f6b6457e060405160405180910390a35050565b61129f8061010d6000396000f3fe60806040526004361061007b5760003560e01c8063c23f001f1161004e578063c23f001f14610109578063c4d66de814610146578063f2fde38b1461016f578063f3fef3a3146101985761007b565b8063158ef93e1461008057806347e7ef24146100ab578063715018a6146100c75780638da5cb5b146100de575b600080fd5b34801561008c57600080fd5b506100956101c1565b6040516100a29190610ae7565b60405180910390f35b6100c560048036038101906100c09190610b9b565b6101d4565b005b3480156100d357600080fd5b506100dc610365565b005b3480156100ea57600080fd5b506100f3610379565b6040516101009190610bea565b60405180910390f35b34801561011557600080fd5b50610130600480360381019061012b9190610c05565b6103a2565b60405161013d9190610c54565b60405180910390f35b34801561015257600080fd5b5061016d60048036038101906101689190610c6f565b6103c7565b005b34801561017b57600080fd5b5061019660048036038101906101919190610c6f565b61043e565b005b3480156101a457600080fd5b506101bf60048036038101906101ba9190610b9b565b6104c1565b005b600260009054906101000a900460ff1681565b600073ffffffffffffffffffffffffffffffffffffffff168273ffffffffffffffffffffffffffffffffffffffff16036102a05734600160003373ffffffffffffffffffffffffffffffffffffffff1673ffffffffffffffffffffffffffffffffffffffff16815260200190815260200160002060008473ffffffffffffffffffffffffffffffffffffffff1673ffffffffffffffffffffffffffffffffffffffff16815260200190815260200160002060008282546102949190610ccb565b92505081905550610361565b6102cd3330838573ffffffffffffffffffffffffffffffffffffffff166105df909392919063ffffffff16565b80600160003373ffffffffffffffffffffffffffffffffffffffff1673ffffffffffffffffffffffffffffffffffffffff16815260200190815260200160002060008473ffffffffffffffffffffffffffffffffffffffff1673ffffffffffffffffffffffffffffffffffffffff16815260200190815260200160002060008282546103599190610ccb565b925050819055505b5050565b61036d610668565b61037760006106e6565b565b60008060009054906101000a900473ffffffffffffffffffffffffffffffffffffffff16905090565b6001602052816000526040600020602052806000526040600020600091509150505481565b600260009054906101000a900460ff1615610417576040517f08c379a000000000000000000000000000000000000000000000000000000000815260040161040e90610d5c565b60405180910390fd5b6001600260006101000a81548160ff02191690831515021790555061043b816106e6565b50565b610446610668565b600073ffffffffffffffffffffffffffffffffffffffff168173ffffffffffffffffffffffffffffffffffffffff16036104b5576040517f08c379a00000000000000000000000000000000000000000000000000000000081526004016104ac90610dee565b60405180910390fd5b6104be816106e6565b50565b6104c9610668565b600073ffffffffffffffffffffffffffffffffffffffff168273ffffffffffffffffffffffffffffffffffffffff16036105af5760003373ffffffffffffffffffffffffffffffffffffffff168260405161052390610e3f565b60006040518083038185875af1925050503d8060008114610560576040519150601f19603f3d011682016040523d82523d6000602084013e610565565b606091505b50509050806105a9576040517f08c379a00000000000000000000000000000000000000000000000000000000081526004016105a090610ea0565b60405180910390fd5b506105db565b6105da33828473ffffffffffffffffffffffffffffffffffffffff166107aa9092919063ffffffff16565b5b5050565b610662846323b872dd60e01b85858560405160240161060093929190610ec0565b604051602081830303815290604052907bffffffffffffffffffffffffffffffffffffffffffffffffffffffff19166020820180517bffffffffffffffffffffffffffffffffffffffffffffffffffffffff8381831617835250505050610830565b50505050565b6106706108f7565b73ffffffffffffffffffffffffffffffffffffffff1661068e610379565b73ffffffffffffffffffffffffffffffffffffffff16146106e4576040517f08c379a00000000000000000000000000000000000000000000000000000000081526004016106db90610f43565b60405180910390fd5b565b60008060009054906101000a900473ffffffffffffffffffffffffffffffffffffffff169050816000806101000a81548173ffffffffffffffffffffffffffffffffffffffff021916908373ffffffffffffffffffffffffffffffffffffffff1602179055508173ffffffffffffffffffffffffffffffffffffffff168173ffffffffffffffffffffffffffffffffffffffff167f8be0079c531659141344cd1fd0a4f28419497f9722a3daafe3b4186f6b6457e060405160405180910390a35050565b61082b8363a9059cbb60e01b84846040516024016107c9929190610f63565b604051602081830303815290604052907bffffffffffffffffffffffffffffffffffffffffffffffffffffffff19166020820180517bffffffffffffffffffffffffffffffffffffffffffffffffffffffff8381831617835250505050610830565b505050565b6000610892826040518060400160405280602081526020017f5361666545524332303a206c6f772d6c6576656c2063616c6c206661696c65648152508573ffffffffffffffffffffffffffffffffffffffff166108ff9092919063ffffffff16565b90506000815111156108f257808060200190518101906108b29190610fb8565b6108f1576040517f08c379a00000000000000000000000000000000000000000000000000000000081526004016108e890611057565b60405180910390fd5b5b505050565b600033905090565b606061090e8484600085610917565b90509392505050565b60608247101561095c576040517f08c379a0000000000000000000000000000000000000000000000000000000008152600401610953906110e9565b60405180910390fd5b6000808673ffffffffffffffffffffffffffffffffffffffff168587604051610985919061116f565b60006040518083038185875af1925050503d80600081146109c2576040519150601f19603f3d011682016040523d82523d6000602084013e6109c7565b606091505b50915091506109d8878383876109e4565b92505050949350505050565b60608315610a46576000835103610a3e576109fe85610a59565b610a3d576040517f08c379a0000000000000000000000000000000000000000000000000000000008152600401610a34906111d2565b60405180910390fd5b5b829050610a51565b610a508383610a7c565b5b949350505050565b6000808273ffffffffffffffffffffffffffffffffffffffff163b119050919050565b600082511115610a8f5781518083602001fd5b806040517f08c379a0000000000000000000000000000000000000000000000000000000008152600401610ac39190611247565b60405180910390fd5b60008115159050919050565b610ae181610acc565b82525050565b6000602082019050610afc6000830184610ad8565b92915050565b600080fd5b600073ffffffffffffffffffffffffffffffffffffffff82169050919050565b6000610b3282610b07565b9050919050565b610b4281610b27565b8114610b4d57600080fd5b50565b600081359050610b5f81610b39565b92915050565b6000819050919050565b610b7881610b65565b8114610b8357600080fd5b50565b600081359050610b9581610b6f565b92915050565b60008060408385031215610bb257610bb1610b02565b5b6000610bc085828601610b50565b9250506020610bd185828601610b86565b9150509250929050565b610be481610b27565b82525050565b6000602082019050610bff6000830184610bdb565b92915050565b60008060408385031215610c1c57610c1b610b02565b5b6000610c2a85828601610b50565b9250506020610c3b85828601610b50565b9150509250929050565b610c4e81610b65565b82525050565b6000602082019050610c696000830184610c45565b92915050565b600060208284031215610c8557610c84610b02565b5b6000610c9384828501610b50565b91505092915050565b7f4e487b7100000000000000000000000000000000000000000000000000000000600052601160045260246000fd5b6000610cd682610b65565b9150610ce183610b65565b9250828201905080821115610cf957610cf8610c9c565b5b92915050565b600082825260208201905092915050565b7f416c726561647920696e697469616c697a656400000000000000000000000000600082015250565b6000610d46601383610cff565b9150610d5182610d10565b602082019050919050565b60006020820190508181036000830152610d7581610d39565b9050919050565b7f4f776e61626c653a206e6577206f776e657220697320746865207a65726f206160008201527f6464726573730000000000000000000000000000000000000000000000000000602082015250565b6000610dd8602683610cff565b9150610de382610d7c565b604082019050919050565b60006020820190508181036000830152610e0781610dcb565b9050919050565b600081905092915050565b50565b6000610e29600083610e0e565b9150610e3482610e19565b600082019050919050565b6000610e4a82610e1c565b9150819050919050565b7f4661696c656420746f2073656e64204574686572000000000000000000000000600082015250565b6000610e8a601483610cff565b9150610e9582610e54565b602082019050919050565b60006020820190508181036000830152610eb981610e7d565b9050919050565b6000606082019050610ed56000830186610bdb565b610ee26020830185610bdb565b610eef6040830184610c45565b949350505050565b7f4f776e61626c653a2063616c6c6572206973206e6f7420746865206f776e6572600082015250565b6000610f2d602083610cff565b9150610f3882610ef7565b602082019050919050565b60006020820190508181036000830152610f5c81610f20565b9050919050565b6000604082019050610f786000830185610bdb565b610f856020830184610c45565b9392505050565b610f9581610acc565b8114610fa057600080fd5b50565b600081519050610fb281610f8c565b92915050565b600060208284031215610fce57610fcd610b02565b5b6000610fdc84828501610fa3565b91505092915050565b7f5361666545524332303a204552433230206f7065726174696f6e20646964206e60008201527f6f74207375636365656400000000000000000000000000000000000000000000602082015250565b6000611041602a83610cff565b915061104c82610fe5565b604082019050919050565b6000602082019050818103600083015261107081611034565b9050919050565b7f416464726573733a20696e73756666696369656e742062616c616e636520666f60008201527f722063616c6c0000000000000000000000000000000000000000000000000000602082015250565b60006110d3602683610cff565b91506110de82611077565b604082019050919050565b60006020820190508181036000830152611102816110c6565b9050919050565b600081519050919050565b60005b83811015611132578082015181840152602081019050611117565b60008484015250505050565b600061114982611109565b6111538185610e0e565b9350611163818560208601611114565b80840191505092915050565b600061117b828461113e565b915081905092915050565b7f416464726573733a2063616c6c20746f206e6f6e2d636f6e7472616374000000600082015250565b60006111bc601d83610cff565b91506111c782611186565b602082019050919050565b600060208201905081810360008301526111eb816111af565b9050919050565b600081519050919050565b6000601f19601f8301169050919050565b6000611219826111f2565b6112238185610cff565b9350611233818560208601611114565b61123c816111fd565b840191505092915050565b60006020820190508181036000830152611261818461120e565b90509291505056fea26469706673582212206cae7df4b29d8e2378355879dd0c18e60e03da251650f5b9dd4e1ac8b77dd7ef64736f6c63430008120033",
  "linkReferences": {},
  "deployedLinkReferences": {}
}